{
  "_format": "hh-sol-artifact-1",
  "contractName": "IdentityManagement",
  "sourceName": "contracts/IdentityManagement.sol",
  "abi": [
    {
      "inputs": [],
      "stateMutability": "nonpayable",
      "type": "constructor"
    },
    {
      "inputs": [
        {
          "internalType": "address",
          "name": "",
          "type": "address"
        },
        {
          "internalType": "uint256",
          "name": "",
          "type": "uint256"
        }
      ],
      "name": "DLRequestMap",
      "outputs": [
        {
          "internalType": "string",
          "name": "requestedBy",
          "type": "string"
        },
        {
          "internalType": "string",
          "name": "DL_No",
          "type": "string"
        },
        {
          "internalType": "string",
          "name": "DL_Name",
          "type": "string"
        },
        {
          "internalType": "string",
          "name": "DL_DOB",
          "type": "string"
        },
        {
          "internalType": "uint256",
          "name": "DL_Hash",
          "type": "uint256"
        },
        {
          "internalType": "string",
          "name": "DL_Address",
          "type": "string"
        },
        {
          "internalType": "uint256",
          "name": "DL_OverAll_Status",
          "type": "uint256"
        }
      ],
      "stateMutability": "view",
      "type": "function"
    },
    {
      "inputs": [
        {
          "internalType": "address",
          "name": "userAddress",
          "type": "address"
        },
        {
          "internalType": "string",
          "name": "requestedBy",
          "type": "string"
        },
        {
          "internalType": "string",
          "name": "DL_No",
          "type": "string"
        },
        {
          "internalType": "string",
          "name": "DL_Name",
          "type": "string"
        },
        {
          "internalType": "string",
          "name": "DL_DOB",
          "type": "string"
        },
        {
          "internalType": "uint256",
          "name": "DL_Hash",
          "type": "uint256"
        },
        {
          "internalType": "string",
          "name": "DL_Address",
          "type": "string"
        },
        {
          "internalType": "uint256",
          "name": "DL_OverAll_Status",
          "type": "uint256"
        }
      ],
      "name": "addDLRequest",
      "outputs": [],
      "stateMutability": "nonpayable",
      "type": "function"
    },
    {
      "inputs": [
        {
          "internalType": "address",
          "name": "userAddress",
          "type": "address"
        },
        {
          "internalType": "string",
          "name": "fullName",
          "type": "string"
        },
        {
          "internalType": "string",
          "name": "emailID",
          "type": "string"
        },
        {
          "internalType": "uint256",
          "name": "mobileNo",
          "type": "uint256"
        }
      ],
      "name": "addUser",
      "outputs": [],
      "stateMutability": "nonpayable",
      "type": "function"
    },
    {
      "inputs": [
        {
          "internalType": "address",
          "name": "userAddress",
          "type": "address"
        },
        {
          "internalType": "string",
          "name": "DL_No",
          "type": "string"
        },
        {
          "internalType": "string",
          "name": "DL_Name",
          "type": "string"
        },
        {
          "internalType": "string",
          "name": "DL_DOB",
          "type": "string"
        },
        {
          "internalType": "uint256",
          "name": "DL_Hash",
          "type": "uint256"
        },
        {
          "internalType": "string",
          "name": "DL_Address",
          "type": "string"
        }
      ],
      "name": "addUserDL",
      "outputs": [],
      "stateMutability": "nonpayable",
      "type": "function"
    },
    {
      "inputs": [],
      "name": "contractOwner",
      "outputs": [
        {
          "internalType": "address",
          "name": "",
          "type": "address"
        }
      ],
      "stateMutability": "view",
      "type": "function"
    },
    {
      "inputs": [
        {
          "internalType": "address",
          "name": "",
          "type": "address"
        },
        {
          "internalType": "uint256",
          "name": "",
          "type": "uint256"
        }
      ],
      "name": "userDLMap",
      "outputs": [
        {
          "internalType": "string",
          "name": "DL_No",
          "type": "string"
        },
        {
          "internalType": "string",
          "name": "DL_Name",
          "type": "string"
        },
        {
          "internalType": "string",
          "name": "DL_DOB",
          "type": "string"
        },
        {
          "internalType": "uint256",
          "name": "DL_Hash",
          "type": "uint256"
        },
        {
          "internalType": "string",
          "name": "DL_Address",
          "type": "string"
        }
      ],
      "stateMutability": "view",
      "type": "function"
    },
    {
      "inputs": [
        {
          "internalType": "address",
          "name": "",
          "type": "address"
        },
        {
          "internalType": "uint256",
          "name": "",
          "type": "uint256"
        }
      ],
      "name": "userMap",
      "outputs": [
        {
          "internalType": "string",
          "name": "fullName",
          "type": "string"
        },
        {
          "internalType": "string",
          "name": "emailID",
          "type": "string"
        },
        {
          "internalType": "uint256",
          "name": "mobileNo",
          "type": "uint256"
        }
      ],
      "stateMutability": "view",
      "type": "function"
    },
    {
      "inputs": [
        {
          "internalType": "address",
          "name": "userAddress",
          "type": "address"
        },
        {
          "internalType": "uint256",
          "name": "requestIndex",
          "type": "uint256"
        }
      ],
      "name": "viewDLRequestHeader",
      "outputs": [
        {
          "internalType": "string",
          "name": "requestedBy",
          "type": "string"
        },
        {
          "internalType": "uint256",
          "name": "DL_OverAll_Status",
          "type": "uint256"
        }
      ],
      "stateMutability": "view",
      "type": "function"
    },
    {
      "inputs": [
        {
          "internalType": "address",
          "name": "userAddress",
          "type": "address"
        }
      ],
      "name": "viewDLRequestLength",
      "outputs": [
        {
          "internalType": "uint256",
          "name": "",
          "type": "uint256"
        }
      ],
      "stateMutability": "view",
      "type": "function"
    }
  ],
  "bytecode": "0x608060405234801561001057600080fd5b50336000806101000a81548173ffffffffffffffffffffffffffffffffffffffff021916908373ffffffffffffffffffffffffffffffffffffffff1602179055506117f6806100606000396000f3fe608060405234801561001057600080fd5b50600436106100935760003560e01c806399778848116100665780639977884814610136578063b3c2583514610167578063ce606ee014610183578063cf76d0f1146101a1578063e0893dc1146101d757610093565b806303fdf096146100985780634644f039146100cc57806356e24ea8146100fe5780635b08c53a1461011a575b600080fd5b6100b260048036038101906100ad9190610dd9565b610207565b6040516100c3959493929190610eb8565b60405180910390f35b6100e660048036038101906100e19190610dd9565b61047a565b6040516100f593929190610f27565b60405180910390f35b610118600480360381019061011391906110a1565b6105d1565b005b610134600480360381019061012f919061119e565b6106cc565b005b610150600480360381019061014b9190610dd9565b6107f5565b60405161015e9291906112e0565b60405180910390f35b610181600480360381019061017c9190611310565b6108f9565b005b61018b6109ba565b60405161019891906113be565b60405180910390f35b6101bb60048036038101906101b69190610dd9565b6109de565b6040516101ce97969594939291906113d9565b60405180910390f35b6101f160048036038101906101ec919061146b565b610ce5565b6040516101fe9190611498565b60405180910390f35b6002602052816000526040600020818154811061022357600080fd5b906000526020600020906005020160009150915050806000018054610247906114e2565b80601f0160208091040260200160405190810160405280929190818152602001828054610273906114e2565b80156102c05780601f10610295576101008083540402835291602001916102c0565b820191906000526020600020905b8154815290600101906020018083116102a357829003601f168201915b5050505050908060010180546102d5906114e2565b80601f0160208091040260200160405190810160405280929190818152602001828054610301906114e2565b801561034e5780601f106103235761010080835404028352916020019161034e565b820191906000526020600020905b81548152906001019060200180831161033157829003601f168201915b505050505090806002018054610363906114e2565b80601f016020809104026020016040519081016040528092919081815260200182805461038f906114e2565b80156103dc5780601f106103b1576101008083540402835291602001916103dc565b820191906000526020600020905b8154815290600101906020018083116103bf57829003601f168201915b5050505050908060030154908060040180546103f7906114e2565b80601f0160208091040260200160405190810160405280929190818152602001828054610423906114e2565b80156104705780601f1061044557610100808354040283529160200191610470565b820191906000526020600020905b81548152906001019060200180831161045357829003601f168201915b5050505050905085565b6001602052816000526040600020818154811061049657600080fd5b9060005260206000209060030201600091509150508060000180546104ba906114e2565b80601f01602080910402602001604051908101604052809291908181526020018280546104e6906114e2565b80156105335780601f1061050857610100808354040283529160200191610533565b820191906000526020600020905b81548152906001019060200180831161051657829003601f168201915b505050505090806001018054610548906114e2565b80601f0160208091040260200160405190810160405280929190818152602001828054610574906114e2565b80156105c15780601f10610596576101008083540402835291602001916105c1565b820191906000526020600020905b8154815290600101906020018083116105a457829003601f168201915b5050505050908060020154905083565b600260008773ffffffffffffffffffffffffffffffffffffffff1673ffffffffffffffffffffffffffffffffffffffff1681526020019081526020016000206040518060a00160405280878152602001868152602001858152602001848152602001838152509080600181540180825580915050600190039060005260206000209060050201600090919091909150600082015181600001908161067591906116bf565b50602082015181600101908161068b91906116bf565b5060408201518160020190816106a191906116bf565b506060820151816003015560808201518160040190816106c191906116bf565b505050505050505050565b600360008973ffffffffffffffffffffffffffffffffffffffff1673ffffffffffffffffffffffffffffffffffffffff1681526020019081526020016000206040518060e00160405280898152602001888152602001878152602001868152602001858152602001848152602001838152509080600181540180825580915050600190039060005260206000209060070201600090919091909150600082015181600001908161077c91906116bf565b50602082015181600101908161079291906116bf565b5060408201518160020190816107a891906116bf565b5060608201518160030190816107be91906116bf565b506080820151816004015560a08201518160050190816107de91906116bf565b5060c0820151816006015550505050505050505050565b6060600080600360008673ffffffffffffffffffffffffffffffffffffffff1673ffffffffffffffffffffffffffffffffffffffff168152602001908152602001600020848154811061084b5761084a611791565b5b9060005260206000209060070201905080600001805461086a906114e2565b80601f0160208091040260200160405190810160405280929190818152602001828054610896906114e2565b80156108e35780601f106108b8576101008083540402835291602001916108e3565b820191906000526020600020905b8154815290600101906020018083116108c657829003601f168201915b5050505050925080600601549150509250929050565b600160008573ffffffffffffffffffffffffffffffffffffffff1673ffffffffffffffffffffffffffffffffffffffff1681526020019081526020016000206040518060600160405280858152602001848152602001838152509080600181540180825580915050600190039060005260206000209060030201600090919091909150600082015181600001908161099191906116bf565b5060208201518160010190816109a791906116bf565b5060408201518160020155505050505050565b60008054906101000a900473ffffffffffffffffffffffffffffffffffffffff1681565b600360205281600052604060002081815481106109fa57600080fd5b906000526020600020906007020160009150915050806000018054610a1e906114e2565b80601f0160208091040260200160405190810160405280929190818152602001828054610a4a906114e2565b8015610a975780601f10610a6c57610100808354040283529160200191610a97565b820191906000526020600020905b815481529060010190602001808311610a7a57829003601f168201915b505050505090806001018054610aac906114e2565b80601f0160208091040260200160405190810160405280929190818152602001828054610ad8906114e2565b8015610b255780601f10610afa57610100808354040283529160200191610b25565b820191906000526020600020905b815481529060010190602001808311610b0857829003601f168201915b505050505090806002018054610b3a906114e2565b80601f0160208091040260200160405190810160405280929190818152602001828054610b66906114e2565b8015610bb35780601f10610b8857610100808354040283529160200191610bb3565b820191906000526020600020905b815481529060010190602001808311610b9657829003601f168201915b505050505090806003018054610bc8906114e2565b80601f0160208091040260200160405190810160405280929190818152602001828054610bf4906114e2565b8015610c415780601f10610c1657610100808354040283529160200191610c41565b820191906000526020600020905b815481529060010190602001808311610c2457829003601f168201915b505050505090806004015490806005018054610c5c906114e2565b80601f0160208091040260200160405190810160405280929190818152602001828054610c88906114e2565b8015610cd55780601f10610caa57610100808354040283529160200191610cd5565b820191906000526020600020905b815481529060010190602001808311610cb857829003601f168201915b5050505050908060060154905087565b6000600360008373ffffffffffffffffffffffffffffffffffffffff1673ffffffffffffffffffffffffffffffffffffffff168152602001908152602001600020805490509050919050565b6000604051905090565b600080fd5b600080fd5b600073ffffffffffffffffffffffffffffffffffffffff82169050919050565b6000610d7082610d45565b9050919050565b610d8081610d65565b8114610d8b57600080fd5b50565b600081359050610d9d81610d77565b92915050565b6000819050919050565b610db681610da3565b8114610dc157600080fd5b50565b600081359050610dd381610dad565b92915050565b60008060408385031215610df057610def610d3b565b5b6000610dfe85828601610d8e565b9250506020610e0f85828601610dc4565b9150509250929050565b600081519050919050565b600082825260208201905092915050565b60005b83811015610e53578082015181840152602081019050610e38565b60008484015250505050565b6000601f19601f8301169050919050565b6000610e7b82610e19565b610e858185610e24565b9350610e95818560208601610e35565b610e9e81610e5f565b840191505092915050565b610eb281610da3565b82525050565b600060a0820190508181036000830152610ed28188610e70565b90508181036020830152610ee68187610e70565b90508181036040830152610efa8186610e70565b9050610f096060830185610ea9565b8181036080830152610f1b8184610e70565b90509695505050505050565b60006060820190508181036000830152610f418186610e70565b90508181036020830152610f558185610e70565b9050610f646040830184610ea9565b949350505050565b600080fd5b600080fd5b7f4e487b7100000000000000000000000000000000000000000000000000000000600052604160045260246000fd5b610fae82610e5f565b810181811067ffffffffffffffff82111715610fcd57610fcc610f76565b5b80604052505050565b6000610fe0610d31565b9050610fec8282610fa5565b919050565b600067ffffffffffffffff82111561100c5761100b610f76565b5b61101582610e5f565b9050602081019050919050565b82818337600083830152505050565b600061104461103f84610ff1565b610fd6565b9050828152602081018484840111156110605761105f610f71565b5b61106b848285611022565b509392505050565b600082601f83011261108857611087610f6c565b5b8135611098848260208601611031565b91505092915050565b60008060008060008060c087890312156110be576110bd610d3b565b5b60006110cc89828a01610d8e565b965050602087013567ffffffffffffffff8111156110ed576110ec610d40565b5b6110f989828a01611073565b955050604087013567ffffffffffffffff81111561111a57611119610d40565b5b61112689828a01611073565b945050606087013567ffffffffffffffff81111561114757611146610d40565b5b61115389828a01611073565b935050608061116489828a01610dc4565b92505060a087013567ffffffffffffffff81111561118557611184610d40565b5b61119189828a01611073565b9150509295509295509295565b600080600080600080600080610100898b0312156111bf576111be610d3b565b5b60006111cd8b828c01610d8e565b985050602089013567ffffffffffffffff8111156111ee576111ed610d40565b5b6111fa8b828c01611073565b975050604089013567ffffffffffffffff81111561121b5761121a610d40565b5b6112278b828c01611073565b965050606089013567ffffffffffffffff81111561124857611247610d40565b5b6112548b828c01611073565b955050608089013567ffffffffffffffff81111561127557611274610d40565b5b6112818b828c01611073565b94505060a06112928b828c01610dc4565b93505060c089013567ffffffffffffffff8111156112b3576112b2610d40565b5b6112bf8b828c01611073565b92505060e06112d08b828c01610dc4565b9150509295985092959890939650565b600060408201905081810360008301526112fa8185610e70565b90506113096020830184610ea9565b9392505050565b6000806000806080858703121561132a57611329610d3b565b5b600061133887828801610d8e565b945050602085013567ffffffffffffffff81111561135957611358610d40565b5b61136587828801611073565b935050604085013567ffffffffffffffff81111561138657611385610d40565b5b61139287828801611073565b92505060606113a387828801610dc4565b91505092959194509250565b6113b881610d65565b82525050565b60006020820190506113d360008301846113af565b92915050565b600060e08201905081810360008301526113f3818a610e70565b905081810360208301526114078189610e70565b9050818103604083015261141b8188610e70565b9050818103606083015261142f8187610e70565b905061143e6080830186610ea9565b81810360a08301526114508185610e70565b905061145f60c0830184610ea9565b98975050505050505050565b60006020828403121561148157611480610d3b565b5b600061148f84828501610d8e565b91505092915050565b60006020820190506114ad6000830184610ea9565b92915050565b7f4e487b7100000000000000000000000000000000000000000000000000000000600052602260045260246000fd5b600060028204905060018216806114fa57607f821691505b60208210810361150d5761150c6114b3565b5b50919050565b60008190508160005260206000209050919050565b60006020601f8301049050919050565b600082821b905092915050565b6000600883026115757fffffffffffffffffffffffffffffffffffffffffffffffffffffffffffffffff82611538565b61157f8683611538565b95508019841693508086168417925050509392505050565b6000819050919050565b60006115bc6115b76115b284610da3565b611597565b610da3565b9050919050565b6000819050919050565b6115d6836115a1565b6115ea6115e2826115c3565b848454611545565b825550505050565b600090565b6115ff6115f2565b61160a8184846115cd565b505050565b5b8181101561162e576116236000826115f7565b600181019050611610565b5050565b601f8211156116735761164481611513565b61164d84611528565b8101602085101561165c578190505b61167061166885611528565b83018261160f565b50505b505050565b600082821c905092915050565b600061169660001984600802611678565b1980831691505092915050565b60006116af8383611685565b9150826002028217905092915050565b6116c882610e19565b67ffffffffffffffff8111156116e1576116e0610f76565b5b6116eb82546114e2565b6116f6828285611632565b600060209050601f8311600181146117295760008415611717578287015190505b61172185826116a3565b865550611789565b601f19841661173786611513565b60005b8281101561175f5784890151825560018201915060208501945060208101905061173a565b8683101561177c5784890151611778601f891682611685565b8355505b6001600288020188555050505b505050505050565b7f4e487b7100000000000000000000000000000000000000000000000000000000600052603260045260246000fdfea26469706673582212203028c5f89a6e8d2439f20f68d16326833b11c5ea4d64d60d2304d7c1aa0bef7f64736f6c63430008120033",
  "linkReferences": {},
  "deployedLinkReferences": {}
}